:020000020000FC
:100000000FEF0DBF08E00EBF4079243019120278BF
:10001000001008034621060E0E94730040E030E005
:1000200070E06FE080E006E005B900E80093610051
:1000300007E0009361000FEF0AB90FE707B9579A7D
:1000400020E050E0F0E0E8E0E20F2491022F0F738F
:1000500008B926FD5F9A26FF5F9803B102FF19C019
:1000600013B111FF1DC005B301FFF0CFA99A43954D
:10007000413061F744271B9A552319F45E9A3327C0
:10008000E5CF36130E94670030E03BB978135E9AE3
:10009000DDCF04E60A95F1F71A9BFBCF0E945700CB
:1000A00014E61A95F1F7199BFBCF0E945F005613D7
:1000B0005395252FF0E0E8E0E20F2491C7CF5813C5
:1000C0005A95252FF0E0E8E0E20F2491BFCF339559
:1000D000330F330F3BB978135E9A36953695351347
:1000E000B5CF0E947C0000E006BD0CE907BD02E030
:1000F00004BD05E005BD089578130E9483007FE0EC
:0C0100005E9A3FE0A3CF70E03FE0A0CF8C
:00000001FF
