:020000020000FC
:100000000FEF0DBF08E00EBF4079243019120278BF
:10001000001008034621060E0E946E0040E030E00A
:1000200070E06FE080E000E80093610007E000937B
:10003000610006E005B90FEF0AB90FE707B9579A53
:1000400020E050E0F0E0E8E0E20F2491022F0F738F
:1000500008B926FD5F9A26FF5F9803B102FF14C01E
:1000600013B111FF18C005B301FFF0CFA99A439552
:10007000413061F744271B9A36130E94620030E03A
:100080003BB978135E9AE2CF04E60A95F1F71A9B22
:10009000FBCF0E94520014E61A95F1F7199BFBCF93
:1000A0000E945A0056135395252FF0E0E8E0E20F26
:1000B0002491CCCF58135A95252FF0E0E8E0E20FB9
:1000C0002491C4CF3395330F330F3BB978135E9A25
:1000D000369536953513BACF0E94770000E006BDFD
:1000E0000CE907BD02E004BD05E005BD08957813E5
:1000F0000E947E007FE05E9A3FE0A8CF70E03FE084
:02010000A5CF89
:00000001FF
